{
  "contractName": "TokenSale",
  "abi": [
    {
      "constant": true,
      "inputs": [],
      "name": "mytokencontract",
      "outputs": [
        {
          "name": "",
          "type": "address"
        }
      ],
      "payable": false,
      "stateMutability": "view",
      "type": "function",
      "signature": "0x7d2a815b"
    },
    {
      "inputs": [
        {
          "name": "_mytokencontract",
          "type": "address"
        }
      ],
      "payable": false,
      "stateMutability": "nonpayable",
      "type": "constructor",
      "signature": "constructor"
    }
  ],
  "bytecode": "0x608060405234801561001057600080fd5b506040516020806101bb8339810180604052602081101561003057600080fd5b8101908080519060200190929190505050336000806101000a81548173ffffffffffffffffffffffffffffffffffffffff021916908373ffffffffffffffffffffffffffffffffffffffff16021790555080600160006101000a81548173ffffffffffffffffffffffffffffffffffffffff021916908373ffffffffffffffffffffffffffffffffffffffff1602179055505060ea806100d16000396000f3fe608060405260043610603f576000357c0100000000000000000000000000000000000000000000000000000000900463ffffffff1680637d2a815b146044575b600080fd5b348015604f57600080fd5b5060566098565b604051808273ffffffffffffffffffffffffffffffffffffffff1673ffffffffffffffffffffffffffffffffffffffff16815260200191505060405180910390f35b600160009054906101000a900473ffffffffffffffffffffffffffffffffffffffff168156fea165627a7a723058208a5cf10ee043eb0df7ae43f864320f10fafc6fa0077bfef2ee29a438822435530029",
  "source": "pragma solidity >=0.4.21 <0.7.0;\n\nimport './mytoken.sol';\n\ncontract TokenSale{\n    address admin;\n    MyToken public mytokencontract; \n\n    constructor(MyToken _mytokencontract) public{\n        admin = msg.sender;\n\n        mytokencontract = _mytokencontract;\n\n    }\n\n}",
  "sourcePath": "/home/vishnuskrishnan/createToken/src/contracts/tokensale.sol",
  "compiler": {
    "name": "solc",
    "version": "0.5.0+commit.1d4f565a.Emscripten.clang"
  },
  "schemaVersion": "3.0.2",
  "updatedAt": "2020-05-31T15:21:47.181Z",
  "devdoc": {
    "methods": {}
  },
  "userdoc": {
    "methods": {}
  }
}